:020000040800F2
:10000000680B002091010008231A0008B5150008AC
:10001000211A0008D7050008491F00080000000049
:10002000000000000000000000000000151D000896
:10003000D905000800000000251A0008171D000857
:10004000AB010008AB010008AB010008AB010008E0
:10005000AB010008AB010008AB010008AB010008D0
:10006000AB010008AB010008AB010008AB010008C0
:10007000AB010008AB010008AB010008AB010008B0
:10008000AB010008AB010008AB010008AB010008A0
:10009000AB010008AB010008AB010008AB01000890
:1000A000AB010008AB010008AB010008AB01000880
:1000B000AB010008AB010008AB010008AB01000870
:1000C000AB010008AB010008AB010008AB01000860
:1000D000AB010008AB010008AB010008AB01000850
:1000E000AB010008AB010008AB01000800F002F80A
:1000F00000F03FF80AA090E8000C82448344AAF183
:100100000107DA4501D100F034F8AFF2090EBAE880
:100110000F0013F0010F18BFFB1A43F0010318473B
:10012000EC2D00000C2E0000103A24BF78C878C1D6
:10013000FAD8520724BF30C830C144BF04680C60ED
:10014000704700000023002400250026103A28BF35
:1001500078C1FBD8520728BF30C148BF0B60704739
:10016000642900F07180002070471FB51FBD10B5D5
:1001700010BD00F0F6F91146FFF7F7FF01F0FCFEA5
:1001800000F014FA03B4FFF7F2FF03BC00F01CFA0E
:100190000948804709480047FEE7FEE7FEE7FEE71B
:1001A000FEE7FEE7FEE7FEE7FEE7FEE70448054957
:1001B000054A064B70470000791D0008ED00000855
:1001C00068050020680B00206807002068070020F1
:1001D0000FB41CB5074B06AA7B44694600900598EE
:1001E00000F085F90020694600F094F91CBC5DF828
:1001F00014FB00003903000070B5044685690068EF
:10020000C10601D5302600E02026C00707D070BD0A
:10021000D4E9012130469047206A401C20626D1EBF
:10022000F6D570BD70B5044685690078C00707D162
:1002300070BDD4E9012120209047206A401C206233
:100240006D1EF6D570BD00002DE9F0410646002474
:1002500010687529314616A510D0AFF3008000282C
:1002600002DA404213A507E031688A0701D512A5DA
:1002700002E0490704D511A5012401E0AFF3008095
:1002800000210A2206F1240709E0B0FBF2FCB0FBD2
:10029000F2F302FB1C00303078541846491C002849
:1002A000F3D123462A463046BDE8F04100F0C1B8FC
:1002B000000000002D0000002B00000020000000C6
:1002C0002DE9F0474FF0000A89460446C0F820A007
:1002D0002046E1688847002876D0252806D0D4E952
:1002E00001219047206A401C2062F1E7E168204626
:1002F00000258847C4F81CA006460027C4F818A0AB
:100300002A2E09D0304601F030FE38B304EB8708BE
:10031000303EC8F8186019E059F8041B204604EB79
:1003200087029161E1688847012F064618D1E0698C
:10033000002820DA25F020051DE0D8F8180000EB91
:10034000800006EB40003038C8F818002046E1680D
:100350008847064601F009FE0028EED1012F0AD099
:100360002E2E08D12046E16888477F1C0646022FC2
:1003700045F02005C4DBA069002803DA404245F0BF
:100380000105A061E80701D025F01005B6B1A6F17E
:100390004100192802D8203645F400654A46314606
:1003A000204625604D46FFF7DBFE58B1012806D0F8
:1003B000ED1D25F0070000F1080989E704E005F1CB
:1003C000040985E730468AE7206ABDE8F08702F035
:1003D000FF0343EA032242EA024200F0A2B84FF0D0
:1003E000000200B5134694469646203922BFA0E885
:1003F0000C50A0E80C50B1F12001BFF4F7AF090791
:1004000028BFA0E80C5048BF0CC05DF804EB890081
:1004100028BF40F8042B08BF704748BF20F8022BC4
:1004200011F0804F18BF00F8012B704770477047DC
:1004300070472DE9F0470D4699469246044600F173
:1004400024080168880604D5E06921F010012160C4
:1004500000E00120A84201DD471B00E00027A16960
:100460007A1902EB0900081AA0612078C00602D4AC
:100470002046FFF7C1FE002608E0D4E901211AF862
:1004800006009047206A401C761C20624E45F4DB33
:100490002078C0060AD52046FFF7AEFE06E0D4E974
:1004A000012130209047206A401C2062381EA7F1AD
:1004B0000107F4DC07E0D4E9012118F805009047B2
:1004C000206A401C2062281EA5F10105F3DC2046AD
:1004D000FFF7A8FE2078000602D50220BDE8F087CD
:1004E0000120FBE701694A1C02610878704700B5EA
:1004F0008FB0CDE901310021059105497944CDE95D
:10050000031011466846FFF7DBFE0FB000BD000088
:10051000E5FFFFFF0A6802F8010B0A6070474FF021
:1005200000020429C0F0128010F0030C3FF459AF10
:10053000CCF1040CBCF1020F18BF00F8012BA8BFCE
:1005400020F8022BA1EB0C01FFF74BBF5FEAC17C47
:1005500024BF00F8012B00F8012B48BF00F8012B45
:100560007047754600F02CF8AE46050069465346C4
:1005700020F00700854618B020B5FFF717FEBDE84C
:1005800020404FF000064FF000074FF000084FF0FA
:10059000000B21F00701AC46ACE8C009ACE8C0098B
:1005A000ACE8C009ACE8C0098D46704710B50446F8
:1005B000AFF300802046BDE81040FFF7E3BD000028
:1005C000004870470805002001491820ABBEFEE72F
:1005D000260002007047FEE7704772B6FEE7000093
:1005E00070B5044600F008F90546601C02D00448C6
:1005F0000078044400F000F9401BA042FAD370BD1B
:10060000140000202DE9F84FDFF8B891002409F11B
:10061000040A0AF1040B23460F270BF1040EC9E06C
:100620000125A5402A40AA427DD1674ED1F804C0D9
:10063000ACEB0608B44532D014DCBCF1030F3AD061
:1006400009DCBCF1000F2AD0BCF1010F1CD0BCF1B9
:10065000020F31D11DE0BCF1110F17D0BCF1120F08
:100660002AD119E0B8F5881F19D006DCB8F5803F0B
:1006700015D0B8F5801F1FD111E0B8F5001F0ED0BE
:10068000B8F5041F18D10AE0CB6815E0CB681B1D34
:1006900012E0CB6808330FE0CB680C330CE08B68BA
:1006A0002BB1012B4FF0080303D0456104E0042374
:1006B00002E0056100E00023FF2A01D8064601E0C0
:1006C00000F104064FEA840501D9A5F12005D6F80A
:1006D000008007FA05FC28EA0C0803FA05F548EA49
:1006E0000508C6F800804D68ED0062D5374DAE694B
:1006F00046F00106AE61AD6924F0030605F0010580
:100700000095334D06EB050CDCF80850A607360FB4
:1007100007FA06F825EA0805DFF8B880404503D156
:100720004FF0000817E044E0DFF8AC80404502D10C
:100730004FF001080FE0DFF8A480404502D14FF0F0
:10074000020808E0DFF89880404502D14FF0030826
:1007500001E04FF0040808FA06F848EA0508CCF86A
:1007600008804D68D9F80060ED034D4601D5164369
:1007700000E096432E604D68DAF80060AD03554600
:1007800001D5164300E096432E604D68DBF800600B
:10079000ED025D4601D5164300E096432E604D689C
:1007A000DEF80060AD02754601D5164300E09643C1
:1007B0002E60641C0D682A46E5407FF431AFBDE829
:1007C000F88F0000000401400000111000100240EA
:1007D0000000014000080140000C014000100140F1
:1007E000001401408068084000D0012070470AB121
:1007F000016170470904FBE7014880687047000009
:100800001400002070B5040025D094F83D000025A8
:1008100020B984F83C50204600F004FA242084F8E3
:100820003D002068016821F0010101602068016835
:1008300041F4004101602068016821F40041016039
:1008400000F03EFB4D4A6168914201D84C4900E0FE
:100850004C49884201D2012070BD4B492368B0FB4E
:10086000F1F15E6826F03F060E435E6063689342D6
:1008700006D94FF4967359434FF47A73B1FBF3F1F1
:100880002368491C1E6A26F03F06314319626168DD
:10089000914210D84900401EB0FBF1F2521CC2F345
:1008A0000B02042A01D2042022E0B0FBF1F0401C2C
:1008B000C0F30B001CE0A268F2B301EBC10303EB31
:1008C0000116431EB3FBF6F35B1C43F480431B0588
:1008D00049D092B301EBC10202EB0111401EB0FB03
:1008E000F1F0401CC0F30B0040F4804040F40040A5
:1008F0002168CA694CF6FF739A431043C861D4E972
:10090000071001432068026822F0C0021143016011
:10091000D4E9030101432068826848F2FF339A4317
:1009200011438160D4E9050108432168CA6822F0B7
:10093000FF021043C86001E00EE016E02068016885
:1009400041F0010101602564202084F83D00256309
:1009500084F83E50002070BD01EB4106431EB3FBFE
:10096000F6F35B1CB3E70120C2E701EB4101401E37
:10097000B0FBF1F0401CC0F30B00B7E7A08601000C
:1009800080841E0000093D0040420F002DE9FF4F0A
:1009900081B089460446FFF72FFF054694F83D00D5
:1009A0004FF0010820287DD119230122504920460B
:1009B000009500F08BFE002874D194F83C000128CB
:1009C00070D0012084F83C0020680168C90703D179
:1009D000016841F0010101602068016821F40061B3
:1009E0000160242084F83D00002626644148E0622E
:1009F0004FF0011B20272068016841F480710160DD
:100A00000095002259462046049B00F05FFE50B13D
:100A100020680068C00502D54FF4007020640320F0
:100A200005B0BDE8F08F216809F0FE000861FFF70E
:100A3000E3FE2168054648694969C0F34000C1F3F7
:100A400080214FF0A00A0FE0FFF7D6FE411B04986B
:100A5000814200D808B984F83DA0216848694969F5
:100A6000C0F34000C1F3802194F83D20A02A02D0B9
:100A700008B90029E8D084F83D7020684169C9436D
:100A8000890716D4016841F400710160206841694A
:100A900080691923012216492046009500F016FEB0
:100AA000B8B900E021E084F83D7084F83C60002093
:100AB000B6E7016841F40071016021686FF480605D
:100AC0004861192301220A492046009500F0FEFDE5
:100AD00008B10120A4E7039808F1010880458AD3F2
:100AE00084F83D7084F83C60F3E7022098E700004A
:100AF000020010000000FFFF2DE9F84F1F4690464E
:100B00008A460446DDF82890FFF776FE054694F8FD
:100B10003D0020287FD1192301224049204600951D
:100B200000F0D4FD002876D194F83C00012872D062
:100B3000012084F83C0020680168C90703D10168DE
:100B400041F0010101602068016821F40061016049
:100B5000212084F83D00102084F83E000026266401
:100B6000C4F824806785608D20852D48E0622B467F
:100B70004A465146204600F035FD90B9206841694B
:100B80008069009036E02A464946204600F01DFE66
:100B900050B1206C042804D12068016841F4007130
:100BA00001600120BDE8F88F606A21680078086163
:100BB000606A401C6062618D491E6185218D491EFD
:100BC00089B2218522685369DB435B070BD451B19D
:100BD00000781061606A401C6062608D401E608514
:100BE000208D401E20852A464946204600F048FDBB
:100BF0000028CED1208D0028C5D154F83D0B0168C6
:100C000041F400710160202004F81E09E677667740
:100C10000020C7E7FFE70220C4E700000200100041
:100C20000000FFFF10B586B00021009101910291F4
:100C3000039100680F4988421AD10F4CA06940F017
:100C40000800A061A069694600F008000490C02077
:100C5000009012200190032003900848FFF7D2FC77
:100C6000E06940F40010E061E06900F400100490D5
:100C700006B010BD0054004000100240000C0140BE
:100C80000248816802781144816070471400002096
:100C9000074810B5016841F010010160032000F021
:100CA00067F80F2000F006F800F024F8002010BDCF
:100CB0000020024070B50D4D04464FF47A7128783B
:100CC000B1FBF0F00A490968B1FBF0F000F0CEFA90
:100CD00048B9102C07D200222146501E00F028F8F7
:100CE00000206C6070BD012070BD00001400002069
:100CF000200000200C4808B5816941F001018161A4
:100D0000816901F001010091C16941F08051C16127
:100D1000C06900F0805000900448416821F0E06113
:100D200041F00071416008BD001002400000014028
:100D3000F0B40E4B1B680C46C3F30223C3F1070546
:100D4000042D00D90425191D072901D2002300E034
:100D5000DB1E012606FA05F1491E214099409E40FE
:100D6000761E16403143F0BC01F0EFB80CED00E008
:100D7000064900F0070208684FF6FF03184040EAF2
:100D80000220034A10430860704700000CED00E0A9
:100D90000000FA052DE9F0470F46050061D0434EEB
:100DA000306800F00700B84209D2306820F0070030
:100DB00038433060306800F00700B84251D12868ED
:100DC0003B4C810712D5400703D5606840F4E060D2
:100DD00060602878000703D5606840F46050606068
:100DE0006068A96820F0F000084360602878C007B8
:100DF00028D06868012810D02168022810D08907FF
:100E000000292EDA616821F0030101436160FFF7D8
:100E1000F3FC804641F288390DE021688903EFE751
:100E20008901EDE7FFF7E8FCA0EB0801494502D98D
:100E30000320BDE8F0876068696800F00C00B0EB43
:100E4000810FEFD1306800F00700B8420BD930684D
:100E500020F0070038433060306800F00700B842E7
:100E600001D00120E5E72878400705D56068E968EA
:100E700020F4E060084360602878000706D56068C9
:100E8000296920F4605040EAC100606000F028F851
:100E90006168084AC1F30311515CC8400649086003
:100EA00006480068FFF706FF0020C2E70020024066
:100EB00000100240F42E000820000020180000203E
:100EC0000448054900684968044AC1F30221515C9D
:100ED000C84070472000002000100240042F000886
:100EE00012A185B00FC98DE80F0014A0144A006844
:100EF00004905168134801F00C03042B10D0082B08
:100F00000ED1C1F38343C9031DF803000AD551680C
:100F100004AAC1F34041515C0A4A5043B0FBF1F0CE
:100F200005B0704708494843FAE70000020304058A
:100F3000060708090A0B0C0D0E0F10100102000025
:100F40000010024000127A0000093D002DE9F84F20
:100F5000040070D02078C04DC00749D06868C0F345
:100F60008100012807D06868C0F38100022809D1F8
:100F70006868C00306D52868800339D560680028F2
:100F8000E7D035E06068B0F5803F0BD010B1B0F528
:100F9000A02F11D0286820F480302860286820F421
:100FA000802002E0286840F480302860606890B1BA
:100FB000FFF722FC06460AE0286840F480202860FB
:100FC000F0E700BFFFF718FC801B642873D828687F
:100FD0008003F7D50CE0FFF70FFC064605E000BFE5
:100FE000FFF70AFC801B6428F0D828688003F7D438
:100FF00020789A4E80074FF001094FF0000839D54C
:10100000686810F00C0F07D06868C0F381000228F0
:1010100009D16868C00306D42868800714D5206900
:10102000012808D110E02069B0B1C6F80090FFF7A0
:10103000E3FB074605E00AE1FFF7DEFBC01B0228E1
:10104000C4D828688007F7D52868616920F0F800BF
:1010500040EAC10028600DE0C6F80080FFF7CCFB35
:10106000074604E0FFF7C8FBC01B022823D8286806
:101070008007F7D4207800072CD57948A169D9B129
:10108000C0F80090FFF7B8FB074604E0FFF7B4FB99
:10109000C01B02280FD8686A8007F7D571484FF443
:1010A000FA510068B0FBF1F0009000BF0098411EBB
:1010B0000091FAD20EE080E0C0F80080FFF79CFBC0
:1010C000074604E0FFF798FBC01B022875D8686A42
:1010D0008007F7D42078400760D5E8690027C00072
:1010E00008D4E86940F08050E861E869012700F021
:1010F000805000905C480168C90513D4016883469C
:1011000041F480710160FFF777FB824606E000BF83
:10111000FFF772FBA0EB0A0064284ED8DBF8000052
:10112000C005F5D5E06801280AD008B1052813D01C
:10113000286A20F001002862286A20F0040002E0FA
:10114000286A40F001002862E06841F2883B98B1CB
:10115000FFF752FB82460BE0286A40F00400286249
:10116000EEE700BFFFF748FBA0EB0A0159455AD84C
:10117000286A8007F6D50CE0FFF73EFB824605E0C3
:10118000FFF73AFBA0EB0A0159454CD8286A8007C3
:10119000F6D41FB1E86920F08050E861E06988B3B7
:1011A0006968C1F38101022944D00228C6F8608031
:1011B00004D0FFF721FB044638E034E0FFF71CFBC6
:1011C000074604E0FFF718FBC01B02282BD828684D
:1011D0008001F7D4206AB0F5803F05D16868A16826
:1011E00020F4003008436860D4E9080108436968C6
:1011F00021F4741108436860C6F86090FFF7FCFAA8
:10120000044606E025E000BFFFF7F6FA001B0228BF
:1012100009D828688001F7D51BE000BFFFF7ECFA7A
:10122000001B022802D90320BDE8F88F286880013E
:10123000F4D40EE00128F7D06868226A00F4803107
:10124000914204D1616A00F47010884201D00120FB
:10125000EAE70020E8E700000010024000004242F8
:1012600080044242200000200070004010B5401E63
:10127000B0F1807F01D3012010BD4FF0E024606108
:101280000F21601700F061FE0020A061072020619F
:10129000002010BD10B590F83C20012A22D0012278
:1012A00080F83C20CA688C6822F4407222434C6863
:1012B00022F4806222430C6822F4006222430C690B
:1012C00022F4805222434C6922F400522243C9691D
:1012D000002322F480420A4301684A6480F83C30CB
:1012E000002010BD022010BD70B590F83C20012AEE
:1012F00026D0012480F83C40022280F83D2003687B
:101300005A689D6822F070060A6832435A600D4B95
:1013100002689A4208D0B2F1804F05D00A4B9A4237
:1013200002D00A4B9A4204D1496825F08003194340
:10133000916080F83D40002180F83C10084670BD67
:10134000022070BD002C0140000400400008004055
:1013500010B586B000210091019102910391124CC9
:101360000368124902221248A34209D18B6943F053
:1013700004038B61896901F00401049181150BE07C
:101380000C4CA3420ED18B6943F004038B61896935
:1013900001F0040104914021CDE900126946039255
:1013A000FFF730F906B010BD002C014000100240DC
:1013B000000801400004004070B5044690F83C006D
:1013C0000D4601280AD0012084F83C0042B1042ACD
:1013D00018D0082A2AD00C2A4DD139E0022070BD3D
:1013E000206800F00FFD2068816941F008018161EB
:1013F0002068816921F004018161206881692A697E
:10140000114311E0206800F025FD2068816941F456
:10141000006181612068816921F4806181612068B7
:1014200081692A6941EA0221816124E0206800F093
:101430003DFD2068C16941F00801C1612068C169B2
:1014400021F00401C1612068C1692A69114311E0DA
:10145000206800F057FD2068C16941F40061C16156
:101460002068C16921F48061C1612068C1692A696D
:1014700041EA0221C161002084F83C0070BD10B532
:10148000040003D094F83D0010B107E0012010BD26
:10149000002084F83C00204600F01EF8022084F86A
:1014A0003D00211D206800F069FC012084F8460001
:1014B00084F83E0084F83F0084F8400084F841003E
:1014C00084F8420084F8430084F8440084F845001E
:1014D00084F83D00002010BD08B50C4A01680C4896
:1014E000914207D1816941F400618161806900F412
:1014F000006009E0074A914207D1C16941F0020149
:10150000C161C06900F00200009008BD002C0140DC
:10151000001002400004004010B50446022249B108
:1015200004290ED0082913D094F84100012816D0C0
:10153000012010BD94F83E000128F9D184F83E2026
:101540000FE094F83F000128F2D184F83F2008E032
:1015500094F840000128EBD184F8402001E084F8A1
:1015600041200122206800F03FFC0F49206888429A
:1015700003D1426C42F4004242642068884208D0A1
:10158000B0F1804F05D00949884202D0084988420D
:1015900004D1816801F00701062903D0016841F0F8
:1015A00001010160002010BD002C0140000400403A
:1015B00000080040FEE701684A69D24352050FD493
:1015C0006FF480624A61002140F8301F202242738C
:1015D0008173026942F004020261017301207047C5
:1015E00000207047F8B50446C06A1E460D461746EF
:1015F000082807D0012805D010F5803F02D0206BC5
:10160000122804D12068016841F4807101601346FA
:1016100000224FF001112046009600F057F840B12B
:1016200020680068C00502D54FF4007020640320D4
:10163000F8BD2069B0F5804F0ED00620216800EA81
:10164000D51040F0F000086133463A460B49204679
:1016500000F070F878B902E005F0FE0000E0E8B2B2
:1016600021680861054933463A46891F204600F043
:1016700061F80028DCD00120F8BD0000080001005E
:1016800070B516460D4604460DE02046FFF793FF61
:1016900008B1012070BD681C05D0FFF7ADF8801BB4
:1016A000A84207D835B120684069C0434007ECD450
:1016B000002070BD002044F8300F20216173A0731A
:1016C000216941F0200121612073E2E72DE9F04713
:1016D0001E4690460D460446C1F30747DDF82090AC
:1016E00008E0701C06D0FFF787F8A0EB0900B042B5
:1016F0000FD876B12068012F18D0806925EA000044
:101700000004000C14D000214145EAD00020BDE8BF
:10171000F087002044F8300F20216173A073216905
:1017200041F02001216120730120F0E74069E5E7E5
:101730000121E9E72DE9F0479A4691460E46044615
:1017400000254FF02008C1F3074725E020684069D5
:10175000C043400514D42068016841F40071016061
:1017600021686FF480604861256384F83D8084F8C7
:101770003E50206C40F00400206484F83C501FE090
:10178000B9F1FF3F08D0FFF737F8A0EB0A01494550
:101790000CD8B9F1000F09D02068012F13D080694F
:1017A00026EA00000004000C0BD0CFE744F8305FBD
:1017B00084F80D80A573206940F020002061257316
:1017C0000120BDE8F0874069EAE770B516460D468E
:1017D00004460DE02046FFF7EEFE08B1012070BD83
:1017E000681C05D0FFF708F8801BA84207D835B160
:1017F00020684069C0430006ECD4002070BD002082
:1018000044F8300F20216173A073216941F0200159
:1018100021612073E2E700002DE9F04186B0002449
:1018200028480094019402940394816941F02001B6
:101830008161816901F020010491816941F0040115
:101840008161816901F004010491816941F008011D
:10185000816180691C4F00F008004FF428760490E5
:10186000002231463846FEF7C2FFDFF860800022D2
:1018700023214046FEF7BBFF032001258DE8310000
:1018800069463846FEF7BEFE0C20CDE900046946E5
:1018900038460294FEF7B6FECDE900650226CDE992
:1018A000024669463846FEF7ADFE2320CDE9000525
:1018B000CDE9024669464046FEF7A4FE06B0BDE803
:1018C000F08100000010024000080140000C0140BF
:1018D0000D4810B50B4901600C49416000214FF4DF
:1018E00080428160C0E9031241618161C16101628E
:1018F000FEF788FF002803D0BDE81040FEF76DBE5C
:1019000010BD00000054004024000020801A060092
:1019100010B592B000240F941C2108A81094FEF773
:101920005EFD20216846FEF75AFD20481E490160F1
:101930001521C0E901144FF4FA61C0E903144461B0
:101940008461FFF79CFD08B1FEF747FE0F940FA9D5
:1019500016481094FFF7C8FC08B1FEF73EFE602061
:10196000CDE908040A940B940C940D94002208A964
:101970000E480E94FFF720FD08B1FEF72EFE0094EE
:101980004FF40050CDE90440029401940394694659
:1019900006480794FFF77EFC08B1FEF71EFE0348D9
:1019A000FFF7D6FC12B010BD002C014078000020DB
:1019B00010B58AB0002407941C2168460894FEF7ED
:1019C0000EFD1648144901601521C0E901144FF4B9
:1019D000FA61C0E903148461FFF751FD08B1FEF715
:1019E000FCFD079407A90D480894FFF77DFC08B19A
:1019F000FEF7F3FD6020CDE9000402940022694661
:101A000006480494FFF7D8FC08B1FEF7E6FD03484A
:101A1000FFF79EFC0AB010BD00040040C00000208B
:101A2000FEE7FEE7704710B5002000F025F8BDE89E
:101A3000104000F04BB9000070B5802813D2402947
:101A400011D20B4B012401F007051E79AC40094B64
:101A5000C90800EBC1100EB132B101E0012A03D078
:101A6000195CA143195470BD195C2143FAE70000C9
:101A70000C0000200801002028B1FF224FF48061F3
:101A80000248FEF7A4BC0022F8E70000080100208D
:101A9000014A1080518070470C00002010B500F002
:101AA00049FB44F62063012278215448FEF76EFF7B
:101AB00008B1002010BD40F6C210401EFDD1AE227C
:101AC0000021782000F03CFB20220021782000F04B
:101AD00037FB10220021782000F032FBB0220021D9
:101AE000782000F02DFBC8220021782000F028FB90
:101AF00000221146782000F023FB102200217820DC
:101B000000F01EFB40220021782000F019FB81220A
:101B10000021782000F014FBFF220021782000F043
:101B20000FFBA1220021782000F00AFBA622002151
:101B3000782000F005FBA8220021782000F000FBAF
:101B40003F220021782000F0FBFAA4220021782017
:101B500000F0F6FAD3220021782000F0F1FA0022FA
:101B60001146782000F0ECFAD5220021782000F010
:101B7000E7FAF0220021782000F0E2FAD9220021D1
:101B8000782000F0DDFA22220021782000F0D8FA37
:101B9000DA220021782000F0D3FA122200217820E6
:101BA00000F0CEFADB220021782000F0C9FA2022D2
:101BB0000021782000F0C4FA8D220021782000F066
:101BC000BFFA14220021782000F0BAFAAF220021D7
:101BD000782000F0B5FA2E220021782000F0B0FA2B
:101BE0000020FFF749FF00F071F80548002101804F
:101BF000418001214171084610BD000024000020F1
:101C00000C0000202DE9F047814625480D469246FC
:101C100001882A781144802905D280464088697855
:101C20000844402802D30020BDE8F08700262AE0BF
:101C3000A9F1200101FB00606A68002432F81070ED
:101C40001DE000BF07FA04F0000409D5B8F802103F
:101C5000B8F800003144204489B280B252460BE00B
:101C6000BAF1000F1AD00022B8F80210B8F800003C
:101C70003144204489B280B2FFF7DEFE641C28782C
:101C8000A042DFD8761C6878B042D1D8B8F80010EE
:101C90002A7848461144A8F80010C5E70122E3E776
:101CA0000C00002070B515460E46044609E02A4691
:101CB0003146FFF7A7FF2178884201D0C8B270BD36
:101CC000641C20780028F2D1C0B270BD70B5104DF0
:101CD000002400BF04F1B000C2B20021782000F05F
:101CE0002FFA00221146782000F02AFA1022002153
:101CF000782000F025FA05EBC412802340217820DB
:101D000000F02EFA641CE4B2082CE3D370BD00008E
:101D1000080100207047FEF7B3BF30B58FB028210F
:101D20006846FEF75CFB14210AA8FEF758FB012168
:101D30000804CDE900100024029402250491CDE9A5
:101D400007504FF4E01009906846FFF7FFF808B11C
:101D500072B6FEE70F20CDE90A054FF48060CDE9A9
:101D60000C4002210AA80E94FFF714F8002801D0B5
:101D700072B6FEE70FB030BD70470000F0B50268E4
:101D8000164B174C174D4FF08047984205D0B8427C
:101D900003D0A04201D0A84203D122F070064A68C5
:101DA0003243984205D0B84203D0A04201D0A842A5
:101DB00003D122F44074CA6822434C6922F08002A5
:101DC000224302608A68C2620A688262984201D134
:101DD0000969016301214161F0BD0000002C01404F
:101DE000000400400008004010B501F01F0301216D
:101DF000046A99408C430462016A9A40114301626B
:101E000010BD000030B5026A22F001020262026ACF
:101E10004368846924F073050C682C4322F00205A2
:101E20008A682A430A4DA8420BD122F00805CA68E5
:101E300023F440732A434D6922F004021D438B6949
:101E40002B434360846149684163026230BD0000F6
:101E5000002C014030B5026A22F010020262026AD0
:101E6000436884690D6824F4E64444EA05248D68D7
:101E700022F0200242EA05120B4DA8420ED1CD6895
:101E800022F0800242EA05124D6923F4406343EADE
:101E900085038D6922F0400243EA85034360846133
:101EA00049688163026230BD002C014030B5026A8E
:101EB00022F480720262036A4268C46923F40073E8
:101EC00024F073050C682C438D6843EA05230C4D00
:101ED000A8420ED1CD6823F4006343EA05234D697F
:101EE00022F4405242EA05128D6923F4806342EAEB
:101EF00005124260C4614968C163036230BD0000DD
:101F0000002C014030B5026A22F480520262046A59
:101F10004268C3690D6823F4E64343EA05238D68EC
:101F200024F4005444EA0534064DA84204D14D6916
:101F300022F4804242EA85124260C361496801642A
:101F4000046230BD002C0140FEE70907090E00289D
:101F500004DB00F1E02080F80014704700F00F006F
:101F600000F1E02080F8141D704730380A2801D2B3
:101F700001207047002070478EB0FEF789FEFFF702
:101F8000CCFEFFF749FCFFF7A3FCFFF7C1FCFFF70E
:101F90000FFD00215548FFF7BFFA00215448FFF715
:101FA000BBFAFFF77BFD0F212D20FFF771FD01220A
:101FB000504951A0FFF776FE23211920FFF768FD55
:101FC00001224C494DA0FFF76DFEFFF77FFE40F266
:101FD000DC50FEF705FBFFF726FD4A4D4FF0640A83
:101FE000012220212846FEF702FCDFF81C91474C15
:101FF000474FDFF820814FF4007B642608212846F4
:10200000FEF7F0FB28B104212846FEF7EBFB50B1A8
:1020100023E05046FEF7E4FA20680A302060642886
:102020000BDB266009E05046FEF7DAFA20680A3832
:102030002060002801DC002020601E211420FFF712
:1020400027FD35A168462268FEF7C2F8012229491A
:102050006846FFF727FEFFF739FE02212846FEF704
:10206000C1FB28B101212846FEF7BCFBB8B130E026
:10207000002201214846FEF7BAFB002259462846B5
:10208000FEF7B5FB012220214846FEF7B0FB0A21EE
:102090001420FFF7FDFC0122164922A015E00122C1
:1020A00011464846FEF7A3FB012259462846FEF793
:1020B0009EFB002220214846FEF799FB0A211420AE
:1020C000FFF7E6FC01220B4918A0FFF7EBFDFFF735
:1020D000FDFD20684FF4FA61484390FBF6F139604A
:1020E00090FBF6F1C8F8001088E7000078000020A7
:1020F000C00000200400002042544E0043484543E5
:102100004B45520000080140000C01400000002037
:1021100034040040342C014050574D3A202534649B
:10212000000000004D616A75202000004D756E644E
:10213000757200000148401EFDD1704790D0030029
:102140001CB502238DF804100A2100918DF805209A
:10215000014601AA0148FEF7CFFC1CBD2400002067
:1021600070B5C2B000248DF8041001A904E0155D1B
:102170000E19641C7570E4B29C42F8D30A210091D8
:102180005B1C01469BB201AA0248FEF7B5FC42B0B7
:1021900070BD0000240000200000000000000000CE
:1021A000000000000000000000000000000000002F
:1021B0000000000000000000000000000000000C13
:1021C000000C000C000C000C000C000C000C000CAF
:1021D000000C000C0000000C000C000000000000CF
:1021E0000000001B001B001B001B001B0000000068
:1021F00000000000000000000000000000000000DF
:102200000000000000008019801980198019C07F2B
:10221000C07F80190033C07FC07F0033003300339C
:1022200000330000000000000000001E003F807529
:1022300080650074003C001E000780058065806595
:102240008075003F001E00040004000000000070C4
:1022500000D840D8C0D880D900730006000C801B7D
:10226000C036C066C046C006800300000000000003
:102270000000001E003F003300330033001E000C3E
:10228000C03CC066806380618063C03E801C0000EB
:10229000000000000000000C000C000C000C000C02
:1022A000000000000000000000000000000000002E
:1022B0000000000000000000800000010003000694
:1022C00000060004000C000C000C000C000C000CBC
:1022D000000400060006000300018000002000103A
:1022E0000018000C000C00040006000600060006A2
:1022F000000600060004000C000C0018001000206E
:102300000000000C002D003F001E00330000000004
:1023100000000000000000000000000000000000BD
:1023200000000000000000000000000C000C000C89
:10233000000CC0FFC0FF000C000C000C000C0000E3
:10234000000000000000000000000000000000008D
:10235000000000000000000000000000000000007D
:102360000000000C000C0004000400080000000045
:102370000000000000000000000000000000001E3F
:10238000001E00000000000000000000000000002F
:10239000000000000000000000000000000000003D
:1023A00000000000000000000000000C000C000015
:1023B0000000000000000003000300030006000608
:1023C00000060006000C000C000C000C00180018A1
:1023D00000180000000000000000001E003F003355
:1023E000806180618061806D806D806180618061CD
:1023F0000033003F001E0000000000000000000647
:10240000000E001E0036002600060006000600062C
:10241000000600060006000600060000000000009E
:102420000000001E003F8073806180618001000316
:102430000006000C001800300060807F807F0000E4
:10244000000000000000001C003E00630063000369
:10245000000E000E00038001800180618073003F48
:10246000001E00000000000000000006000E000E2C
:10247000001E001E0016003600360066807F807F3A
:102480000006000600060000000000000000007FBB
:10249000007F006000600060006E007F806380014C
:1024A000800180618073003F001E0000000000007A
:1024B0000000001E003F803380610060006E007FDE
:1024C00080738061806180618033003F001E000066
:1024D000000000000000807F807F80010003000377
:1024E00000060006000C000C000C00080018001884
:1024F00000180000000000000000001E003F806384
:10250000806180610021001E003F806180618061E8
:102510008061003F001E0000000000000000001E5F
:10252000003F00738061806180618073803F801D07
:10253000800180610073003F001E00000000000069
:1025400000000000000000000000000C000C000073
:1025500000000000000000000000000C000C000063
:10256000000000000000000000000000000000006B
:10257000000C000C00000000000000000000000C37
:10258000000C00040004000800000000000000002F
:1025900080008003000E003800600038000E8003C9
:1025A00080000000000000000000000000000000AB
:1025B000000000000000807F807F00000000807F1E
:1025C000807F00000000000000000000000000000C
:1025D000000000000000000000400070001C000728
:1025E00080010007001C0070004000000000000097
:1025F000000000000000001F803FC071C060C000EC
:10260000C00180030007000E000C000C0000000C4D
:10261000000C0000000000000000001E003F8031A0
:1026200080718063806F806D806D806F80670060D7
:102630000032003E001C0000000000000000000E00
:10264000000E001B001B001B001B80318031803FEF
:10265000803F8031C060C060C060000000000000AA
:102660000000007C007E0063006300630063007E66
:10267000007E0063806180618063007F007E0000D7
:10268000000000000000001E003F803180610060FB
:102690000060006000600060006080618031003F89
:1026A000001E0000000000000000007C007F0063AE
:1026B000806380618061806180618061806100638E
:1026C0000063007E007C0000000000000000807FAE
:1026D000807F0060006000600060007F007F00601D
:1026E000006000600060807F807F000000000000CC
:1026F0000000807F807F0060006000600060007FDD
:10270000007F00600060006000600060006000000A
:10271000000000000000001E003F8031806100606A
:102720000060006080638063806180618031803FF1
:10273000001E0000000000000000806180618061D8
:10274000806180618061807F807F80618061806145
:102750008061806180610000000000000000003F97
:10276000003F000C000C000C000C000C000C000CD6
:10277000000C000C000C003F003F000000000000B7
:1027800000008001800180018001800180018001C2
:1027900080018001806180618073003F001E000025
:1027A000000000000000C0608061006300660066F9
:1027B000006C0078007C00660066006380618061C8
:1027C000C0600000000000000000006000600060C9
:1027D00000600060006000600060006000600060F9
:1027E0000060807F807F0000000000000000C0715A
:1027F000C071C07BC07AC06AC06AC06EC064C0606D
:10280000C060C060C060C060C06000000000000028
:10281000000080718071807980798079806D806D11
:10282000806D80658067806780678063806300005B
:10283000000000000000001E003F00338061806146
:102840008061806180618061806180610033003FD0
:10285000001E0000000000000000007E007F80637A
:102860008061806180618063007F007E0060006025
:102870000060006000600000000000000000001E1A
:10288000003F003380618061806180618061806190
:10289000806580670033803F401E0000000000001C
:1028A0000000007E007F8063806180618063007F24
:1028B000007E00660063006380618061C06000008C
:1028C000000000000000000E001F80318031003049
:1028D0000038001E00078003806180618031003F66
:1028E000001E0000000000000000C0FFC0FF000C40
:1028F000000C000C000C000C000C000C000C000C78
:10290000000C000C000C00000000000000008061C2
:1029100080618061806180618061806180618061AF
:10292000806180618073003F001E00000000000095
:102930000000C060C060C060803180318031001B09
:10294000001B001B001B000E000E000E0004000008
:10295000000000000000C0C0C0C0C0C0C0C0C0C0F7
:10296000C0CC804C804C805E8052805280738061ED
:1029700080610000000000000000C0C08060806135
:102980000033003B001E000C000C001E001F003B2B
:1029900080718061C0C00000000000000000C0C065
:1029A0008061806100330033001E001E000C000CAB
:1029B000000C000C000C000C000C000000000000DB
:1029C0000000803F803F8001000300030006000CF0
:1029D000000C0018001800300060807F807F00002D
:1029E00000000000000F000F000C000C000C000C99
:1029F000000C000C000C000C000C000C000C000C77
:102A0000000C000C000F000F000000180018001848
:102A1000000C000C000C000C00060006000600066E
:102A2000000300030003000000000000001E001E61
:102A30000006000600060006000600060006000666
:102A4000000600060006000600060006001E001E26
:102A50000000000C000C001E0012003300338061E7
:102A60008061000000000000000000000000000085
:102A70000000000000000000000000000000000056
:102A80000000000000000000000000000000000046
:102A900000000000E0FF0000000000380018000CFB
:102AA0000000000000000000000000000000000026
:102AB0000000000000000000000000000000000016
:102AC000000000000000001F803F80618001801F27
:102AD000803F80618063807FC0380000000000007C
:102AE00000000060006000600060006E007F807386
:102AF00080618061806180618073007F006E000072
:102B00000000000000000000000000000000001EA7
:102B1000003F807380610060006080618073003FCF
:102B2000001E000000000000000080018001800104
:102B30008001801D803F8073806180618061806141
:102B40008073803F801D0000000000000000000036
:102B5000000000000000001E003F00738061807FC5
:102B6000807F00608071003F001E000000000000B8
:102B70000000C007C00F000C000C807F807F000C9D
:102B8000000C000C000C000C000C000C000C0000F1
:102B9000000000000000000000000000801D803FD9
:102BA000807380618061806180618073803F801D5F
:102BB00080018063007F003E0000006000600060D4
:102BC0000060006F807F80718061806180618061C2
:102BD000806180618061000000000000000000064C
:102BE000000600000000003E003E00060006000651
:102BF00000060006000600060006000000000000B7
:102C00000006000600000000003E003E0006000630
:102C10000006000600060006000600060006004644
:102C2000007E003C00000060006000600060806189
:102C300000630066006C007C0076006300638061C6
:102C4000C0600000000000000000003E003E0006E2
:102C50000006000600060006000600060006000644
:102C60000006000600060000000000000000000052
:102C700000000000000080DDC0FFC0CEC0CCC0CC92
:102C8000C0CCC0CCC0CCC0CCC0CC00000000000088
:102C900000000000000000000000006F807F8071D5
:102CA00080618061806180618061806180610000FD
:102CB0000000000000000000000000000000001EF6
:102CC000003F807380618061806180618073003F1C
:102CD000001E0000000000000000000000000000D6
:102CE000006E007F8073806180618061806180738D
:102CF000007F006E00600060006000600000000067
:102D000000000000801D803F8073806180618061D1
:102D100080618073803F801D80018001800180017F
:102D2000000000000000000000000067803F003944
:102D30000030003000300030003000300030000043
:102D40000000000000000000000000000000001E65
:102D5000803F80610060007F803F80018061007F54
:102D6000001E000000000000000000000008001825
:102D70000018007F007F00180018001800180018C5
:102D80000018801F800F00000000000000000000FD
:102D900000000000000080618061806180618061CE
:102DA000806180618063807F803D000000000000C2
:102DB00000000000000000000000C0608031803191
:102DC0008031001B001B001B000E000E00060000DF
:102DD000000000000000000000000000000080DD96
:102DE00080DD80DD0055005500550077007700221A
:102DF00000220000000000000000000000000000B1
:102E00000000806100330033001E000C000C001E27
:102E1000003300338061000000000000000000006B
:102E20000000000080618061803100330033001BAE
:102E3000001B001B000E000E000E001C007C00702A
:102E400000000000000000000000C07FC07F800183
:102E500000030006000C00180030C07FC07F000097
:102E60000000000080038007000600060006000640
:102E70000006000E001C001C000E000600060006E6
:102E80000006000680078003000600060006000614
:102E90000006000600060006000600060006000602
:102EA0000006000600060006000600060038003C8A
:102EB000000C000C000C000C000C000E00070007BA
:102EC000000E000C000C000C000C000C003C003844
:102ED000000000000000000000000000000080383A
:102EE000807F00470000000000000000000000009C
:102EF00000000000000000000000000001020304C8
:102F00000607080900000000010203042C2F000836
:102F1000000000202400000028010008502F0008B5
:102F200024000020440B00004401000800000000C1
:102F30000B120000982100080000000000000000B3
:102F40000100000010000000000000000024F40058
:04000005080000ED02
:00000001FF
